:03000000020008F3
:030079000200037F
:0500030012007C80FEEC
:11007C00120C22120C2CD2AF75820012060380F822BC
:09006100751800751903751A03E6
:20008D00C021C0E0C0F0C082C083C007C006C005C004C003C002C001C000C0D075D000E5C7
:2000AD009620E7FB759686E59620E7FBAF97E59620E7FB759682E59620E7FBAE97E59620E0
:2000CD00E7FB759684E59620E7FBAD97EF30E10FC007C006C005120168D005D006D007EF94
:2000ED0030E20FC007C006C005120150D005D006D007EE30E00FC007C006C005120174D0E5
:20010D0005D006D007EE30E10BC007C0051204A2D005D007ED30E107C0071204A6D007EFD8
:20012D0030E003120516D0D0D000D001D002D003D004D005D006D007D083D082D0F0D0E021
:20014D00D02132750802E59620E7FB759601759701751800751903751A03227401251BF5DE
:20016D001BE4351CF51C22E59620E7FB75960E759700E59620E7FB759691E59620E7FBAF08
:20018D00977405B5180EE59620E7FB759600850B97751800EF30E211E59620E7FB75961180
:2001AD007597007518000204A1EF30E419E59620E7FB759611759708E59620E7FB75961190
:2001CD00759780751800E5186003020332EF20E0030203327E098E1D751E00751F40751B10
:2001ED0008751C00758220C007120522D007AD0C7E00AB0B8B04E42DFDEC3EFE8D0B8E0C87
:20020D00AD0E7E00AB0D8B04E42DFDEC3EFE8D0D8E0EAD107E00AB0F8B04E4FB2DFDEC3E2E
:20022D00FE8D0F8E10AD097E0053057FBD2169BE0066AE0ABE01028019BE02028028BE03C6
:20024D00028037BE09028014BE0A028023BE0B3E8032C007120B67D007020332C007120B18
:20026D0097D007020332C007120B51D007020332C007120B54D007020332C007120B52D03D
:20028D0007020332C007120B53D007020332C0071205E9D007020332E50AFE24F45003029F
:2002AD00032BEE2E2E9002B6730202DA0202E302032B0202EC02032B0202F50202FE0203E9
:2002CD002B020307020310020319020322C007120685D007804FC00712074FD0078046C0EA
:2002ED00071207C8D007803DC007120841D0078034C007120883D007802BC0071209EFD041
:20030D00078022C007120A57D0078019C007120ACAD0078010C007120B1ED0078007C00742
:20032D001205E9D0077401B5180280030203DBEF30E1030203DBE59620E7FB759691E596BB
:20034D0020E7FBE597FF30E407EF30E0030203DB7F02C3E5119440E5129400403D751B4030
:20036D00751C0085151D85161E85171F758220C0071205A7D00774402515F515E43516F525
:20038D0016E51124C0F511E51234FFF51274402513F513E43514F514801A85111B85121C01
:2003AD0085151D85161E85171F7582201205A77F0A751800E50FB5130BE510B51406430745
:2003CD0008751800E59620E7FB7596118F977402B5180280030204A1E59620E7FB75969134
:2003ED00E59620E7FBE597FF20E0030204A17F40C3E5119440E5129400403D751B40751C99
:20040D000085151D85161E85171F758220C007120522D00774402515F515E43516F516E59F
:20042D001124C0F511E51234FFF51274402513F513E43514F514801A85111B85121C8515C1
:20044D001D85161E85171F7582201205227F48751800E50FB5130BE510B514064307087508
:20046D001800E518701D7409B50A18AC15AD16AE178C828D838EF0120CD5F582C007120B46
:20048D00F6D0077404B518028005E59620E7FB7596118F972275190022E59620E7FB75969D
:2004AD000E759701E59620E7FB759694E59620E7FBAF977403B5190DE59620E7FB75961447
:2004CD007597208043EF30E60BE59620E7FB759614759780120BE385261B751C0085271DC8
:2004ED0085281E85291F7582211205228527828528838529F0120CD5F582120BF6E59620F2
:20050D00E7FB759614759700227401251BF51BE4351CF51C22AF82E51B451C603A8F9643DE
:20052D0096C07E007F008E048F05C3EC951BED951C5021E59620E7FBEE251DFBEF351EFCE1
:20054D00AD1F8B828C838DF0E597120CBC0EBE00D50F80D275960022AF82E51B451C603979
:20056D00E59620E7FB8F967E007F008E048F05C3EC951BED951C5021EE251DFBEF351EFCD2
:20058D00AD1F8B828C838DF0120CD5F597E59620E7FB0EBE00D50F80D222AF82E51B451C37
:2005AD006039E59620E7FB8F967E007F008E048F05C3EC951BED951C5021EE251DFBEF3513
:2005CD001EFCAD1F8B828C838DF0120CD5F597E59620E7FB0EBE00D50F80D222E59620E7ED
:2005ED00FB75960E759700E59620E7FB75961175972075180422AF82A2AF9200C2AFE59656
:20060D0020E7FB75960E759701E59620E7FB759691E59620E7FBAE97AD19BD030DE596209C
:20062D00E7FB7596117597108049ED7046751901EE30E50BE59620E7FB759611759740EEB7
:20064D0030E20BE59620E7FB7596117597008F82120BED85221B751C0085231D85241E854C
:18066D00251F758221120565E59620E7FB759611759701A20092AF22F2
:20068500E50C700FE50B700BE51070077402B50F0280031205E9AF09BF8002800DBF810287
:2006A5008028BF82028046020731E50E7004E50D60061205E90207347515F775160C7517AA
:2006C500807511027512000207347404B50808E50E7004E50D60051205E980537515F77585
:2006E500160C75178075110275120080427404B50804E50E60051205E980347481B50D27D3
:200705007403B519117515F575160C75178075110275120080197515F775160C751780751B
:20072500110275120080081205E980031205E97404B518028013E59620E7FB759611759790
:2007450040751801E4F513F514227404B5081AE509FF6015BF01028010E50C700CE50E70DC
:2007650008E5107004E50F60051205E980377402B5092FE50B702B7481B50D047401800154
:20078500E4FF601EEF601EE59620E7FB75960E759701E59620E7FB75961175974075190070
:2007A50080031205E9E59620E7FB75960E7597007404B51802800BE59620E7FB759611752F
:2007C5009748227404B5081AE509FF6015BF01028010E50C700CE50E7008E5107004E50FDB
:2007E50060051205E980377402B5092FE50B702BAF0DE4BF810104FE7003BF021EEE601E49
:20080500E59620E7FB75960E759701E59620E7FB75961175971075190380031205E9E596EC
:2008250020E7FB75960E7597007404B51802800BE59620E7FB75961175974822E509701934
:20084500E50E7015E50D7011E510700DE50F7009E50C7005E50B30E7031205E9751805E5E2
:200865000B600575080380037508027404B51802800BE59620E7FB75961175974822AF0CE5
:20088500BF01028025BF02028037BF03028055BF040302092BBF0503020941BF21030209DC
:2008A5007ABF22030209900209A17515F975160C751780900CF9E493FF8F1175120002092B
:2008C500A475150B75160D751780900D0EE493FF7E00900D0DE493FCE4FD2FF511EC3EF545
:2008E500120209A4E50BFF24FD50061205E90209A4EF75F002A424B0F582740D35F0F583BA
:20090500E493FEA3E493FF8E158F16751780AD15AE16AF178D828E838FF0120CD5FD8D1177
:200925007512000209A475151475160D751780900D14E493FF8F117512008063AF0BBF810F
:200945001675152675160D751780900D26E493FE8E117512008048BF011675152D75160DDD
:20096500751780900D2DE493FF8F11751200802F1205E9802A75151D75160D751780900DBE
:200985001DE493FF8F11751200801475153475160D75178075112075120080031205E9AF43
:2009A5000CBF01028012BF0202800DBF03028008BF04028003BF0517AE0F7F00C3EE951180
:2009C500EF9512500AE5107006850F118510127404B518028013E59620E7FB7596117597EC
:2009E50040751801E4F513F514227480B5091BE50C7017E50B7013E50E700FE50D700BE591
:200A05001070077401B50F0280051205E980287404B5080F7515F575160C751780751101F5
:200A25007512007403B5080F7515F775160C7517807511017512007404B518028013E59660
:200A450020E7FB759611759740751801E4F513F514227402B50802801FE509701BE50E70D2
:200A650017E50D7013E510700FE50F700BE50C7007E50BFF24FE50051205E98035EF602C04
:200A8500750804751900E59620E7FB75960E759701E59620E7FB759612759704E59620E773
:200AA500FB75960E7597001204A280067508037519037404B51802800BE59620E7FB759668
:200AC50011759748227404B508207481B5091BE50C7017E50B7013E50E700FE50D700BE5B8
:200AE5001070077401B50F0280051205E9800F7515F775160C751780751101751200740471
:200B0500B518028013E59620E7FB759611759740751801E4F513F514227401B50918E510A4
:200B25007014E50F7010E50C700CE50B7008E50E7004E50D60031205E97404B51802800B55
:200B4500E59620E7FB759611759748222222227404B51802800BE59620E7FB7596117597A4
:200B65004822850B82120BE48523158524168525178522117512007404B518028013E59622
:200B850020E7FB759611759740751801E4F513F51422120BE3852715852816852917850F64
:1F0BA500118510127404B518028013E59620E7FB759611759740751802E4F513F5142214
:040CF50001000000FA
:03006A00752A01F3
:200BC400E52A252AF52A7003752A01E580F4FF8F2E75232E75240075254075220122222235
:1B0BE400E582FF7003120BC422E582FF7003120BC422E582FF7003120BE22244
:0C006D00753000753100753200753300ED
:200BFF00C0E0E5A020E00EE532700DE530F4F5307532018003753200740255A0F531C28F2D
:200C1F00D0E032120C77120C8F120C9522E59620E7FB759601759708E59620E7FB75960790
:200C3F00759703E59620E7FB759609759702E59620E7FB75960B75970775D7E0E59620E793
:200C5F00FB75960F75978943E602D2AFE59620E7FB7596017597012243B28275B90043B9C6
:200C7F0080120CA543B9C0E5B930E5FB75A90222E5A475A4FF22758840758920758E0275CE
:1D0C9F008D0075A808227E007F00C3EE94F4EF6480948150070EBE00F10F80EE2293
:200CF900120101100000004010C481B9000001020001090200220101008020090400000188
:200D19000301020009210101000122002007058103000A0A07050103000A0A05010904A1C9
:200D390001A10005091901290815002501950875018102950175008101C0C00403090500AC
:200D5900034D007200440072004D0075006600660069006E00200049006E0063002E0038FD
:200D7900034E004500530020004200650073007400200046007200690065006E00640073D8
:1D0D990000200043006F006E00740072006F006C006C0065007200540D580D780DAE
:06003700E478FFF6D8FD9D
:200015007900E94400601B7A00900DB6780075AA00E493F2A308B8000205AAD9F4DAF275BB
:02003500AAFF20
:190CBC0020F71030F6118883A88220F507F6A88375830022F280F7F022BA
:20003D007800E84400600A790075AA00E4F309D8FC7800E84400600C7900900000E4F0A3B9
:04005D00D8FCD9FAF8
:0D000800758133120CF1E5826003020003E4
:1C0CD50020F71430F6148883A88220F507E6A88375830022E280F7E49322E0222E
:040CF10075820022E6
:00000001FF
